:020000040800F2
:10000000A004002049010008A10700089907000882
:100010009D07000893070008490800080000000039
:10002000000000000000000000000000CF070008F2
:100030009707000800000000CD070008D10700085E
:100040006301000863010008630100086301000800
:1000500063010008630100086301000863010008F0
:1000600063010008630100086301000863010008E0
:1000700063010008630100086301000863010008D0
:1000800063010008630100086301000863010008C0
:1000900063010008630100086301000863010008B0
:1000A00063010008630100086301000863010008A0
:1000B0006301000863010008630100086301000890
:1000C0006301000863010008630100086301000880
:1000D0006301000863010008630100086301000870
:1000E0006301000863010008630100086301000860
:1000F0006301000863010008630100086301000850
:10010000630100086301000863010008630100083F
:10011000630100086301000863010008630100082F
:10012000630100086301000863010008630100081F
:10013000DFF810D000F0EAFA004800470D19000877
:10014000AFF30080A004002006488047064800471F
:10015000FEE7FEE7FEE7FEE7FEE7FEE7FEE7FEE777
:10016000FEE7FEE7D9070008310100082DE9FE4F40
:1001700081EA030404F0004421F0004100944FF0B0
:10018000000B23F0004350EA01045ED052EA03045E
:100190005BD0C3F30A54C1F30A552C44A4F2F334E0
:1001A0000194A0FB0254C1F3130141F48011C3F385
:1001B000130343F4801301FB024400FB034E840A43
:1001C000970A44EA815447EA8357A4FB07680295DB
:1001D0008D0A05FB07854FEA932C04FB0C54270579
:1001E000029D4FEA065847EA1637B5EB08056EEB55
:1001F000070C870E920E47EA811742EA8312A7FB8B
:100200000201B6EB0B0164EB00042B0D43EA0C3347
:100210005E1844EB1C50DA465146E7FB0201C5F379
:1002200013044FEA0B3343EA14534FEA0432019CA0
:1002300043EA0603A4F10C040294009CCDE900B447
:1002400000F03EF903B0BDE8F08F00200146F9E769
:100250002DE9F04D81EA030404F0004B21F0004544
:1002600014464FF0000A23F0004150EA050220D066
:1002700054EA01021DD0C5F30A570246C5F3130321
:10028000C1F31300C1F30A5640F4801543F4801300
:10029000A7EB0608101BD64608F2FD3873EB0500E5
:1002A00002D308F1010801E092185B41B8F1000F98
:1002B00003DA00200146BDE8F08D00204FF48011E4
:1002C000064684460EE0171B73EB050705D3121B89
:1002D00063EB050306434CEA010C49084FEA300082
:1002E00092185B4150EA0107EDD152EA030012D0A7
:1002F00082EA040083EA0501084305D0101BAB41E4
:1003000006D20122002306E000224FF0004302E063
:100310006FF0010253101AEB06004CEB085110EB82
:100320000A0041EB0B01BDE8F04D00F0BAB80EB584
:1003300040F2334102910021CDE900110A460B46FB
:1003400000F0BEF803B000BD00F0004230F0004005
:100350000AD0C10D01F56071C0F3160042EA0151E7
:10036000C20840071143704700200146704701F062
:10037000004330B421F0004150EA010206D00A0DDA
:10038000A2F56072C1F31301002A02DC30BC002028
:100390007047440F44EAC104C100E01830BC00EBD0
:1003A000C25000F047B830B50B460146002020226D
:1003B000012409E021FA02F59D4205D303FA02F572
:1003C000491B04FA02F52844151EA2F10102F1DCD2
:1003D00030BD2DE9F05F0546002092469B468846D9
:1003E0000646814640241BE02846414647462246B1
:1003F00000F0ADF953465A46C01A914110D3114648
:100400001846224600F094F92D1A67EB01084F4672
:1004100022460120002100F08BF917EB00094E4124
:10042000201EA4F10104DFDC484631462A4643463B
:10043000BDE8F09F0029A8BF7047401C490008BFD5
:1004400020F00100704710B4B0FA80FC00FA0CF004
:1004500050EA010404BF10BC704749B1CCF120043C
:1004600021FA04F411FA0CF118BF012121430843C9
:10047000A3EB0C01CB1D4FEA00614FEA102042BFF5
:10048000002010BC704700EBC35010440029A4BFEB
:1004900010BC7047401C490008BF20F0010010BC90
:1004A000704710B5141E73F1000408DA401C41F1C6
:1004B000000192185B411A4301D120F0010010BDE8
:1004C0002DE9F04D92469B4611B1B1FA81F202E05E
:1004D000B0FA80F22032904600F02AF904460F4626
:1004E00040EA0A0041EA0B0153465A46084313D03A
:1004F000114653EA010019D0C8F14002504600F0FD
:1005000026F905460E4650465946424600F010F977
:10051000084305D0012004E020463946BDE8F08DAF
:100520000020054346EAE0762C4337430A986305EA
:10053000E40AA0EB08000022FD0A44EA47540A300E
:1005400002D500200146E9E7010510196941DDE9FE
:10055000084500196941BDE8F04DA2E72DE9FE4FBD
:10056000804681EA0300C00F0C46009021F0004154
:1005700023F00045B8EB0200A94105D240462146D0
:1005800090461C460B46024623F00040104347D0DD
:10059000270DC7F30A00C3F30A510290401A0190D5
:1005A00040286BDAC3F3130040F4801B0098924696
:1005B00020B10023D2EB030A63EB0B0B01985946E1
:1005C000C0F14002504600F0B3F806460D465046D2
:1005D0005946019A00F0CBF810EB08006141002465
:1005E00087EA115284EAE7731A4340D0009A62B353
:1005F000019A012A4FEA075215DC001B61EB020148
:100600004FF0004202EA0752CDE90042001C41F5DA
:10061000801132462B46FFF753FF03B0BDE8F08F41
:1006200040462146F9E7001B61EB0201001C41F541
:10063000801300185B412018A2F5001747EB030157
:1006400040EAD570B6196D4111E06D084FEA3606E3
:1006500045EAC0754FEA0752001B61EB0201001C1E
:1006600041F5801149084FEA3000001951413246E6
:100670002B4603B0BDE8F04FFFF713BF00980122EF
:1006800040000023D0EB020263EBE07300982146A8
:100690004FEAE074B8EB000061EB0401E9E783F096
:1006A00000435BE781F0004158E7C1F30A52C1F310
:1006B000130140F2FF3341F480119A4202DA002024
:1006C0000146704740F233439A42A2F2334202DCC1
:1006D000524200F03CB800F02BB8000030B5041EC8
:1006E00071F1000404DB4FF00044404264EB01016F
:1006F000141E73F1000405DB1C464FF00043524208
:1007000063EB0403994208BF904230BD064C074D8D
:1007100006E0E06840F0010394E8070098471034D1
:10072000AC42F6D3FFF708FDF41E0008141F0008C2
:10073000202A04DB203A00FA02F1002070479140A1
:10074000C2F1200320FA03F3194390407047202A96
:1007500004DB203A21FA02F00021704721FA02F36B
:10076000D040C2F120029140084319467047202A28
:1007700006DBCB17203A41FA02F043EAE07306E0C9
:1007800041FA02F3D040C2F12002914008431946D9
:10079000704700BFFEE7704700BFFEE700BFFEE7FF
:1007A0007047000010B5002807DA0A07140E054A42
:1007B00000F00F031B1FD45403E00A07130E024A74
:1007C000135410BD18ED00E000E400E070477047DE
:1007D00010B500F053FE10BD08B51848006840F48D
:1007E0007000164908601648006840F0010014497E
:1007F00008600846406840F0800048600020009093
:1008000002E00098401C009044F620610098884265
:10081000F7D300200A494860C862084600680949C1
:100820000840074908604FF41F00886008460068C8
:1008300020F48020086001F079FA08BD88ED00E01E
:1008400000100240FFFFF6FE00BFFEE70FB4054BAD
:1008500010B503A9044A029800F0DAF810BC5DF85C
:1008600014FB00004D1700088C00002002E008C8AF
:10087000121F08C1002AFAD170477047002001E01A
:1008800001C1121F002AFBD1704700002DE9FF5F54
:1008900082B00021DDE90430020DDDF840B00343F1
:1008A00018D044F61050A2F2FF32424315141198AA
:1008B00001281FD0A5EB0B00401C5FEA000A4FF097
:1008C00000064E4FDFF83891B046504615D5CAF1B4
:1008D000000413E0119801244AA3012801D16FEA12
:1008E0000B010298119AC0E90031C0E9024206B03A
:1008F000BDE8F09FCBF10000DFE704460021404A4D
:10090000491842EB0450CDE9001012E0E00707D08F
:1009100032463B4640464946FFF728FC804689461A
:1009200032463B4610461946FFF720FC06460F4666
:100930006410002CEAD1DDE90401DDE90023BAF1FD
:10094000000F06DAFFF712FC42464B46FFF70EFC9B
:1009500005E0FFF77DFC42464B46FFF779FC044675
:100960000E460022284BFFF7B9FE03D84FF0FF30A8
:10097000014607E00022254B20463146FFF7EEFDF9
:10098000FFF793FE102409E0002C0ADB0A22002363
:10099000FFF71FFD039B30321A55641E50EA010217
:1009A000F2D1641C039AC4F111031444119A012A70
:1009B00003D0012208430DD10AE0084304D00020EF
:1009C0004FF0110B119072E7A3EB0B056D1E0DE0BC
:1009D0005B4504DD4FF0000205F1010504E003DA98
:1009E0004FF00002A5F10105002AECD00298119900
:1009F000C0E90231C0E9004579E700000000144079
:100A00000000F03F300000000000F0430000E03F35
:100A10002DE9FF4F95B09A46884606460025EEE13F
:100A2000252877D100242746F94A0121039400E0C4
:100A3000044316F8013F203B01FA03F01042F7D1BE
:100A400030782A2811D06FF02F033078A0F13002CF
:100A5000092A16D8039A44F0020402EB820203EB3F
:100A600042021044761C0390EFE758F8042B0392DF
:100A7000002A03DA504244F40054039044F0020484
:100A8000761C30782E2816D116F8010F44F0040495
:100A90002A280DD06FF02F023078A0F13003092BF7
:100AA00009D807EB870302EB4303C718761CF3E76B
:100AB00058F8047B761C30786C280FD006DC4C2864
:100AC00017D068280DD06A2814D104E0742810D0FB
:100AD0007A280FD10DE044F400140AE044F48014A5
:100AE00001E044F440147278824202D104F580148B
:100AF000761C761C307866280BD013DC582877D00B
:100B000009DC002875D04528F6D04628F4D04728BF
:100B10001AD193E118E0632835D0642879D065288C
:100B200012D18BE1702873D008DC6728F1D06928D6
:100B30006FD06E280DD06F2806D1ACE073282CD072
:100B4000752874D0782853D05246179990476D1C59
:100B500054E1C4F30250022809D003280DD0D8F87C
:100B6000001004280DD00D6008F1040846E1D8F803
:100B70000010EA17C1E90052F6E7D8F800100D801E
:100B8000F2E70D70F0E718F8041B8DF80010002054
:100B90008DF80100EB46012003E058F804BB4FF04C
:100BA000FF3061074FF0000102D40DE009F10101AF
:100BB0008946B9420FDA8145F8DB1BF80910002994
:100BC000F4D108E009F1010189468142FADB1BF802
:100BD00009100029F6D103985346A0EB09072146D6
:100BE0003846179A00F080FA284400EB090507E020
:100BF00044E008E10DE01BF8010B524617999047BD
:100C0000B9F10109F7D2534621463846179AF2E066
:100C100039E00A21C4F302524FF0000B0091022A7E
:100C200006D058F8040BC117032A09D00AE023E0C4
:100C300008F1070020F00702F2E80201904605E003
:100C400000B2C117042A01D140B2C117002906DA47
:100C50000A460021404261EB02012D2202E02205FA
:100C600004D52B228DF80420012203E0E20701D0F5
:100C70002022F7E7914657E00A2100E010214FF0CB
:100C8000000B00910BE010214FF0000B44F0040426
:100C90000827009103E008204FF0000B0090C4F3F8
:100CA0000252022A05D058F8040B0021032A08D06A
:100CB00008E008F1070020F00702F2E80201904680
:100CC00003E080B2042A00D1C0B24FF0000922072D
:100CD0002AD53278702A07D0DDF800C08CF0100CCD
:100CE0005CEA0B0C05D00EE040228DF804200122B6
:100CF00008E050EA010306D030238DF804308DF867
:100D0000052002229146009B83F0080353EA0B035F
:100D10000AD150EA010201D1620705D530228DF8CF
:100D200004204FF001097F1E3278582A04D039A2DE
:100D30000C920CAA02920BE03BA2F9E75B46009AE8
:100D4000FFF747FB0C9B9B5C029A521E02921370AA
:100D500050EA0102F2D1029804A9081A00F1200B0E
:100D6000600702D524F4803400E001275F4502DDEE
:100D7000A7EB0B0000E0002000EB0B0100900398B4
:100D80004944401A0390E00306D453462146179A7B
:100D9000039800F0A9F90544002706E001A852468F
:100DA000C05D179990476D1C7F1C4F45F6DBE00333
:100DB0000CD553462146179A039800F095F905443F
:100DC00004E030205246179990476D1C0099481E48
:100DD00000900029F5DC08E002980299524600785C
:100DE000491C0291179990476D1CBBF10001ABF1B2
:100DF000010BF1DC5BE100F065F90544761C30780D
:100E000000287FF40DAE19B02846BDE8F08F000031
:100E100009280100303132333435363738396162D0
:100E20006364656600000000303132333435363794
:100E3000383941424344454600000000600700D471
:100E4000062708F1070020F00700F0E8022380469B
:100E500003F0004C5FEA0C0001D097A009E02005E8
:100E600001D596A005E0E00701D095A001E0AFF222
:100E70004C001390307823F0004365280CD006DC3A
:100E8000452809D046281DD047287FD13BE0662859
:100E900018D067287AD136E00021112F01DB11200C
:100EA00000E0781CCDE9000104A90CA8FFF7EEFCD6
:100EB000DDE90D010C9A4FF0000B07F101091092CA
:100EC00000914EE04FF000400097CDE9011004A9D9
:100ED0000CA8FFF7DBFCDDE90D020C9B0F994FF02E
:100EE000000B91461093009211B9791C00EB010997
:100EF000B7EB090003D4C0F1FF3B07F10109A9EBEF
:100F00000700019042E0012F00DA01270021112F94
:100F100001DD112000E03846CDE9000104A90CA84C
:100F2000FFF7B4FCDDE90D010C9A00914FF0000BC6
:100F3000B946109221070FD4009A4A4503DA914628
:100F400001E0A9F10109B9F1010F05DD109AA9F13C
:100F50000101515C3029F4D0B84202DA10F1040FDB
:100F600003DA0121CDE9011010E0002803DC8344FD
:100F7000A9EB000102E0411C494500DD8946A0EBD8
:100F80000B00401C01904FF000400290200705D458
:100F90000198484502DB4FF0FF30019000208DF8AA
:100FA0004B0002980DF14B07B0F1004F25D0022005
:100FB0000C902B200D90029800280CDA40420290F1
:100FC0002D200D9007E00A210298FFF7ECF930314F
:100FD000029007F8011D0C99481E0C900029F2DCC4
:100FE00002980028EFD1791E0D980870307800F033
:100FF000200040F0450007F8020D11A8C01BC01DDD
:1010000002901398007800B1012000EB09010198CB
:1010100001EBE071029801440398401A401E0390CE
:10102000E00306D453462146179A039800F05CF873
:1010300005441398007818B15246179990476D1CD3
:10104000E00323D553462146179A039800F04CF845
:1010500005441BE0BBF1000F07DB0098584504DD99
:101060001098179910F80B0001E01799302052469C
:10107000904701980BF1010B401E05F1010501900D
:1010800004D12E205246179990476D1CB9F10001EA
:10109000A9F10109DEDC05E017F8010B52461799AA
:1010A00090476D1C0299481E02900029F4DC5346BB
:1010B0002146179A03989EE62D0000002B000000A1
:1010C000200000002DE9F041044600251E46174689
:1010D000880404D405E039462020B0476D1C641E06
:1010E000F9D52846BDE8F0812DE9F04104460025F8
:1010F0001E469046C80301D5302700E0202788040B
:1011000004D505E041463846B0476D1C641EF9D54C
:101110002846BDE8F081816841F00801816000BF88
:10112000816801F008010029FAD1816841F00401C9
:10113000816000BF816801F004010029FAD1704785
:1011400030B5012902D002291AD10CE0C36A23F478
:101150007003C362C36A541E4FF4700505EA045459
:101160002343C3620DE0836B23F440138363836BDB
:10117000541E4FF4401505EA04542343836300E0F2
:1011800000BF00BF30BD000010B5274800F05AF87E
:10119000002000F0C9F800220221234800F037F9AE
:1011A00001221102204800F032F900211E4800F00F
:1011B0003DF8052201211C48FFF7C2FF052300224C
:1011C0000421194800F0BEF8052301220321164826
:1011D00000F0B8F8052302221146134800F0B2F8D7
:1011E000052303220121104800F0ACF805230D224D
:1011F00000210D4800F0A6F84FF4602201210A48B2
:1012000000F079F801221146074800F055F8064829
:1012100000F049F8012000F027F90348FFF77BFFB1
:10122000014800F03BF810BD0024014021B1826864
:1012300042F40062826003E0826822F4006282600D
:101240007047000010B504461348204430B1B0F593
:10125000806F0CD0B0F5C05F1BD111E040F20930B7
:1012600000F0CAFC40F2093000F0B6FC12E040F297
:101270000A3000F0C1FC40F20A3000F0ADFC09E099
:1012800040F20F3000F0B8FC40F20F3000F0A4FC48
:1012900000E000BF00BF10BD00DCFEBF816841F46C
:1012A000807181607047816801F0010119B981681E
:1012B00041F001018160704772B101F001031BB17F
:1012C000836843F48013836001F0020393B1836861
:1012D00043F4004383600DE001F001031BB1836818
:1012E00023F48013836001F002031BB1836823F4AD
:1012F000004383607047012902D0022910D107E022
:10130000836823F46023836083681343836008E069
:10131000836823F4E043836083681343836000E0C1
:1013200000BF00BF704700000549096821F4702123
:10133000034A1160114609680143116070470000BB
:1013400004240140F0B51D4606290CD2436B01EB85
:1013500081071F26BE40B34301EB810602FA06F661
:101360003343436322E00C290ED2036B8E1F06EB3E
:1013700086071F26BE40B3438E1F06EB860602FA81
:1013800006F63343036311E010290FD2C36AA1F1BB
:101390000C0606EB86071F26BE40B343A1F10C06E0
:1013A00006EB860602FA06F63343C3620A2A0CD21B
:1013B000046902EB42070726BE40B44302EB420633
:1013C00005FA06F63443046111E0122A0FD2C4680C
:1013D000A2F10A0606EB46070726BE40B443A2F177
:1013E0000A0606EB460605FA06F63443C460F0BD6D
:1013F00001F001021AB1826842F48002826001F0B9
:1014000002021AB1826842F4001282607047AAB1E7
:1014100001F480731BB1436843F48073436001F4AB
:1014200080631BB1436843F48063436001F00203AF
:10143000CBB1836843F00203836014E001F480734E
:101440001BB1436823F48073436001F480631BB1D4
:10145000436823F48063436001F002031BB1836897
:1014600023F00203836070470349086000BF02490C
:1014700009680029FBD17047040000200448006877
:1014800020B103480068401E014908607047000011
:101490000400002070B505460C462146284600F0A1
:1014A00049F908B900BFFEE704EB8400810005F1AB
:1014B0000800405840F0010104EB8400820005F16F
:1014C0000800815070BD70B505460C46214628467F
:1014D00000F030F908B900BFFEE704EB840081009A
:1014E00005F10800405820F0200104EB8400820040
:1014F00005F10800815070BD00B587B00021164885
:1015000000F030F81548009000208DF818001448BD
:10151000029001208DF819000002019080000390D4
:1015200000208DF81A00052004904FF4005005901B
:101530006A460021084800F04DF800210648FFF7F0
:10154000C2FF0021044800F0DCF800210248FFF748
:10155000A1FF07B000BD0000000002404C24014084
:101560009000002070B504460D462946204600F044
:10157000E1F808B900BFFEE705EB8500810004F142
:101580000800405820F0010105EB8500820004F1BD
:1015900008008150002105EB8500820004F108005D
:1015A000815005EB8500820004F10C00815005EBB1
:1015B0008500820004F11000815005EB8500820057
:1015C00004F1140081506068AA000F219140084383
:1015D000606070BD2DE9F04104460D46164629466F
:1015E000204600F0A7F808B900BFFEE705EB85002C
:1015F000820004F110003168815005EB8500820003
:1016000004F11400B1688150308A81B205EB850085
:10161000820004F10C00815005EB8500810004F18B
:101620000800475827F47C57F168706808437169CF
:101630000843074305EB8500810004F1080047508B
:10164000307E01280ED105EB8500810004F10800F1
:10165000405840F0400105EB8500820004F108008D
:1016600081500DE005EB8500810004F10800405831
:1016700020F0400105EB8500820004F10800815054
:10168000707E01280ED105EB8500810004F1080071
:10169000405840F0800105EB8500820004F108000D
:1016A00081500DE005EB8500810004F108004058F1
:1016B00020F0800105EB8500820004F108008150D4
:1016C000B07E70B905EB8500810004F10800405838
:1016D00020F0100105EB8500820004F10800815024
:1016E0000DE005EB8500810004F10800405840F052
:1016F000100105EB8500820004F108008150BDE86F
:10170000F08170B505460C462146284600F012F8D7
:1017100008B900BFFEE704EB8400810005F1080072
:10172000405820F4804104EB8400820005F1080059
:10173000815070BD02460120034B9A4202D1042918
:1017400000DD0020704700000004024070B5044630
:101750000D46E1B2054800F05DFB00BF07210348DC
:1017600000F0A9FB0028F9D0204670BD00380140E8
:1017700070B5054600241D48854200D103E01C4891
:10178000854200D101241B4931F8140000F014FAFD
:10179000194931F8140000F00FFA184951F82430B3
:1017A000174951F824000322182100F051F8154977
:1017B00051F82430124951F824000322042100F08A
:1017C00047F8284600F02AFB4FF4E131284600F0A4
:1017D000D9FA0421284600F07DFB0821284600F0B4
:1017E00081FB284600F062FB70BD0000003801401C
:1017F00000440040480000202C0000203000002061
:10180000400000203800002010B5082303220021EA
:101810000D4800F01DF80123032200210B4800F0C1
:1018200017F8022303220021084800F011F80423CE
:1018300003220021054800F00BF8082303220021B1
:10184000024800F005F810BD0010014000080140FA
:10185000F0B5044616460025002201F00F0501F000
:10186000100747B1042E05D145F00305E76B1F4370
:10187000E76300E0354300201EE0012787401F405A
:10188000C7B122684FEA800C0F2707FA0CF7BA435A
:10189000870005FA07F73A43282904D10127874032
:1018A0001F40676105E0482903D1012787401F4099
:1018B00027612260471CB8B20828DED3082022E046
:1018C000012787401F40E7B16268A0F108074FEA8F
:1018D000870C0F2707FA0CF7BA43A0F10807BF00DF
:1018E00005FA07F73A43282904D1012787401F400A
:1018F000676105E0482903D1012787401F40276120
:101900006260471CB8B21028DAD3F0BD2DED068B0B
:1019100000F03CF900F00EFAFFF776FFFFF734FC19
:101920001E48FFF725FF37E0FFF7E6FD01211C48C1
:10193000FFF75EFD4FF4FA60FFF796FD002426E006
:10194000184931F81400FEF7F2FC41EC1A0B9FED38
:10195000160B53EC102BFEF709FC41EC190B9FED15
:10196000140B53EC102BFEF773FC41EC180BFEF735
:10197000FEFC1149086008460068FEF7E5FC41ECF2
:10198000180B53EC182B0DA0FEF760FF641C052C00
:10199000D6DB0CA0FEF75AFFC6E700000038014076
:1019A00000240140900000206666666666660A4074
:1019B000000000000000B0400000002025352E335C
:1019C000665620000D0A0000184B5968184B194044
:1019D000164BDA6A22F000520C2820D2DFE800F021
:1019E000060708091F0C1F0D1516171800BF00BFAA
:1019F00000BF41EA803113E000BF20F004004FF047
:101A0000805343EA803319430AE000BF00BF00BFA0
:101A100020F00C0041EA803142F0005200E000BFAB
:101A200000BF024B5960DA627047000000100240AC
:101A3000FF3FFFEF2DE9F04F8CB0074600200A90E2
:101A40004AA090E8004CC068CDE905BECDF810A0D2
:101A500007900FF21C1ADAE9000ACDE9020A0FF228
:101A6000101ADAE9000ACDE9000A44484068C0F3D8
:101A700081000B900B9820B1012804D002283FD19F
:101A800003E03F4A3EE03E4A3CE03C48406800F408
:101A9000803CBCF5803F12D13848C06A00F08048D5
:101AA000B8F1000F01D1364C00E0364C33484068A5
:101AB00000F40039B9F5003F02D1334C00E0324C5C
:101AC0002E484068C0F383412C48406800F0006015
:101AD00008B141F010012948406800F0804008B189
:101AE00041F020010F2901D2891C06E00F2903D300
:101AF0003E2901D8491C00E03F2104FB01F201E02E
:101B00001F4A00BF00BF1D484068C0F3031504A86A
:101B1000465D22FA06F319484068C0F3022502A880
:101B2000465D23FA06F0099014484068C0F3C225C8
:101B30001DF8056023FA06F0089037B1012F06D092
:101B4000022F06D0032F0AD106E00A9208E00A937A
:101B500006E009980A9003E008980A9000E000BFA8
:101B600000BF0A980CB0BDE8F08F00000000000034
:101B700000000000010203040607080900100240EB
:101B800000127A00006CDC0200093D0010B540F242
:101B9000046000F011F840F2026000F00DF840F22D
:101BA000096000F009F80220FFF70EFF4FF4A06073
:101BB00000F002F810BD0000064A02EB901109681F
:101BC00000F01F0301229A401143024B03EB9012D5
:101BD0001160704700100240064A02EB901109683C
:101BE00000F01F0301229A409143024B03EB901235
:101BF0001160704700100240064A02EB901109681C
:101C000000F01F0301229A401143024B03EB901294
:101C10001160704700100240002000213F4A126806
:101C200042F480323D4B1A6000BF401C3B4A1268B0
:101C300002F4003119B94FF6FF729042F5D1374ADC
:101C4000126802F400320AB900BFFEE7334AD269D3
:101C500042F08052314BDA61314A126842F440421C
:101C60002F4B1A602D4A52682C4B5A601A46526804
:101C70005A601A46526842F480625A601A465268A4
:101C800022F440325A601A46526842F440325A6096
:101C90001A465268234B1A40204B5A601A46526823
:101CA000214B1A431D4B5A601A46126842F080724B
:101CB0001A6000BF194A126802F00072002AF9D0B7
:101CC000174A126842F48032154B1A6000BF144A5A
:101CD000526802F48032002AF9D0114A126842F4A4
:101CE00000320F4B1A6000BF0D4A526802F40032F6
:101CF000002AF9D0094A526822F00302074B5A60C1
:101D00001A46526842F002025A6000BF034A526803
:101D100002F00802002AF9D07047000000100240CB
:101D200000700040FFFFC3B70000340810B5FFF794
:101D300073FF10BD10B5124800684FF47A71B0FB04
:101D4000F1F4601EB0F1807F01D301200FE0601E2E
:101D50004FF0E02148610F214FF0FF30FEF722FDE8
:101D600000204FF0E021886107200861002008B1C1
:101D700000BFFEE70021481EFEF714FD10BD000065
:101D8000080000202DE9F04704460D460027B8461C
:101D9000B94600261D49601A8C421CD006DC1C483E
:101DA000204470B1B0F5806F1FD10FE0B0F5806FA7
:101DB00016D0B0F56C4F18D10320FFF73BFE074655
:101DC00014E00220FFF736FE07460FE00220FFF77F
:101DD00031FE07460AE00220FFF72CFE074605E029
:101DE0000220FFF727FE074600E000BF00BF07EB19
:101DF0005500B0FBF5F64FF6F07006EA000806F065
:101E00000F0948EA0900A060BDE8F087004C0040D7
:101E100000BCFFBFC1F308024260704710B5044622
:101E20002049601A8C4228D006DC1F48204490B11B
:101E3000B0F5806F33D117E0B0F5806F26D0B0F5E4
:101E40006C4F2CD140F20E30FFF7D6FE40F20E3030
:101E5000FFF7C2FE24E040F21140FFF7CDFE40F252
:101E60001140FFF7B9FE1BE040F21240FFF7C4FE3D
:101E700040F21240FFF7B0FE12E040F21340FFF7CD
:101E8000BBFE40F21340FFF7A7FE09E040F214400A
:101E9000FFF7B2FE40F21440FFF79EFE00E000BFE5
:101EA00000BF10BD004C004000BCFFBFC16841F442
:101EB0000051C160704710B5024602EB91100068F6
:101EC00001F01F040123A340184008B1012010BDF8
:101ED0000020FCE70A460021C16821F004011143FB
:101EE000C16070470A460021C16821F00801114312
:101EF000C1607047141F000800000020900000001F
:101F00006C080008A41F00089000002010040000C6
:101F10007C0800080000000000000000000E2707F9
:101F2000001001400010014000180140001801405D
:101F30000100000004000000010000000200000099
:101F40000E0611070002000004000000000400005B
:101F500008000000000801400008014002060206D7
:101F600004060406060606060008014000100140AB
:101F7000000C0140010000000020000000400000B3
:101F80000206040603060000010000000020000015
:101F900000400000000201000D0E0628280000008D
:041FA000000000003D
:0400000508000131BD
:00000001FF
